:020000040800F2
:100000000080012085070008D5070008D5070008F3
:10001000D5070008D5070008D50700080000000034
:10002000000000000000000000000000D5070008EC
:10003000D507000800000000D5070008D507000814
:1000400000000000D5070008D5070008D507000804
:10005000D5070008D5070008D5070008D507000810
:10006000D5070008D5070008D5070008D507000800
:10007000D5070008D5070008D5070008D5070008F0
:10008000D5070008D5070008D507000800000000C4
:10009000000000000000000000000000D50700087C
:1000A000D5070008D5070008D5070008D5070008C0
:1000B000D5070008D5070008D5070008D5070008B0
:1000C000D5070008D5070008D5070008D5070008A0
:1000D000D5070008D5070008D50700080000000074
:1000E000D5070008D5070008D50700080000000064
:1000F000000000000000000000000000D50700081C
:1001000000000000D5070008D5070008D507000843
:1001100000000000000000000000000000000000DF
:10012000D5070008D5070008D5070008D50700083F
:10013000D5070008000000000000000000000000DB
:10014000000000000000000000000000D5070008CB
:10015000D5070008D5070008D5070008D50700080F
:10016000D5070008D50700080000000000000000C7
:10017000000000000000000000000000000000007F
:10018000000000000000000000000000000000006F
:04019000D507000887
:100194000348044B834202D0034B03B11847704712
:1001A4000000002000000020000000000548064B6D
:1001B4001B1AD90F01EBA301491002D0034B03B161
:1001C40018477047000000200000002000000000D5
:1001D40010B5064C237843B9FFF7DAFF044B13B18B
:1001E4000448AFF300800123237010BD00000020F9
:1001F40000000000D807000808B5044B1BB10449EF
:100204000448AFF30080BDE80840CFE700000000D9
:1002140004000020D807000870B50F4B0F4DAB4207
:10022400A3EB050607D0B610002455F8043B0134AF
:100234009847A642F9D800F0CDFA094D094B5E1B48
:10024400AB424FEAA60606D0002455F8043B01341D
:100254009847A642F9D870BDF0070008F0070008D7
:10026400F0070008F407000880B58AB000AF00F07A
:100274002BF900F039F9092387F82030022387F895
:100284002130002387F82230022387F8233000230B
:1002940087F82430072387F825300A233B76022386
:1002A4007B760023BB760223FB7600233B77072370
:1002B4007B774FF41653FB6000233B740023BB741D
:1002C40000237B740C23FB7400233B7505233B71D3
:1002D40001237B710023BB710223FB7100233B725A
:1002E40000237B723B1D1946114800F025F807F1E5
:1002F400200319460E4800F01FF807F118031946A9
:100304000B4800F019F807F10C031946094800F0EE
:100314006BF9084800F01AFA034687F8273097F873
:1003240027301946034800F0F7F900BFF1E700BF92
:10033400000002400010014080B487B000AF786034
:1003440039607B68002B00F096803B68002B00F03E
:1003540092803B681B780F2B00F28F803B681B78E0
:100364005B007B617B681A6803217B6901FA03F3F4
:10037400DB431A407B681A607B681A683B685B78C9
:1003840019467B6901FA03F31A437B681A607B6898
:100394005A683B681B78194601238B40DB431A409B
:1003A4007B685A607B685A683B689B7819463B684F
:1003B4001B7801FA03F31A437B685A607B689A68D6
:1003C40003217B6901FA03F3DB431A407B689A60DB
:1003D4007B689A683B68DB7819467B6901FA03F30A
:1003E4001A437B689A607B68DA6803217B6901FAA7
:1003F40003F3DB431A407B68DA607B68DA683B68A6
:100404001B7919467B6901FA03F31A437B68DA60A6
:100414003B685B78022B31D13B681B78DB08DBB28D
:100424003B613B681B7803F007039B00FB607B6820
:100434003A69083253F822200F21FB6801FA03F3CA
:10044400DB4302EA03017B683A69083243F822106D
:100454007B683A69083253F822203B685B79194675
:10046400FB6801FA03F342EA03017B683A69083244
:1004740043F8221002E000BF00E000BF1C37BD4675
:100484005DF8047B7047000080B400AF024B18464F
:10049400BD465DF8047B70470024F40080B500AFCE
:1004A400FFF7F2FF0346184680BD80B500AFFFF7A3
:1004B400F5FF0346184680BD80B500AFFFF7EEFF99
:1004C4000346184680BD000080B400AF054B1B6B8B
:1004D400044A43F00103136300BFBD465DF8047B87
:1004E400704700BF0038024080B400AF054B5B6C1E
:1004F400044A43F01003536400BFBD465DF8047B17
:10050400704700BF0038024080B489B000AFF86083
:10051400B9607A60FB68DB6803F40043002B2ED0DB
:10052400BA6813469B0013449A001A447B685B0024
:10053400B2FBF3F3FB61FB692A4AA2FB03235B09C9
:10054400BB61FA69274BA3FB02135B09642101FB1E
:1005540003F3D31ADB003233224AA2FB03235B09E1
:100564007B61BB691A017B695B0003F4F8731A446D
:100574007B6903F007031A44FB689A602CE0BA68AD
:1005840013469B0013449A001A447B689B00B2FBF9
:10059400F3F3FB61FB69134AA2FB03235B09BB6111
:1005A400FA69104BA3FB02135B09642101FB03F3FB
:1005B400D31A1B0132330B4AA2FB03235B097B6171
:1005C400BB691A017B6903F0F0031A447B6903F0E9
:1005D4000F031A44FB689A6000BF2437BD465DF8D8
:1005E400047B70471F85EB5180B584B000AF786001
:1005F40039607B68002B00F086803B68002B00F09C
:1006040082807B68DB6823F400527B68DA603B6895
:100614001B79012B06D17B68DB6843F480527B682D
:10062400DA6005E07B68DB6823F480527B68DA607B
:100634003B689B79002B17D07B68DB6843F48062AE
:100644007B68DA603B689B79012B06D17B68DB68A9
:1006540023F400727B68DA600CE07B68DB6843F4A7
:1006640000727B68DA6005E07B68DB6823F48062F3
:100674007B68DA607B681B6923F440527B681A61EB
:100684007B681A693B685B791B031A437B681A61B0
:100694003B681B7A012B06D17B68DB6843F400427C
:1006A4007B68DA6005E07B68DB6823F400427B68E2
:1006B400DA607B68164A934203D07B68154A9342FA
:1006C40003D1FFF7F9FEF86002E0FFF7EEFEF860F1
:1006D4003B681B681A46F9687868FFF715FF7B6862
:1006E400DB6843F400527B68DA607B68DB6823F0E4
:1006F4000C027B68DA607B68DB683A68D2791A435B
:100704007B68DA6000E000BF1037BD4680BD00BFE3
:10071400001001400014014080B483B000AF786041
:100724000B46FB707B68002B0AD000BF7B681B68FC
:1007340003F08003002BF9D0FA787B685A6000E05C
:1007440000BF0C37BD465DF8047B704780B485B0AC
:1007540000AF78607B68002B01D1FF230AE000BF63
:100764007B681B6803F02003002BF9D07B685B686F
:10077400FB73FB7B18461437BD465DF8047B70475A
:100784000D488546AFF300800C480D490D4A0023FF
:1007940002E0D458C4500433C4188C42F9D30A4A32
:1007A4000A4C002301E013600432A242FBD3FFF79A
:1007B40033FDFFF759FDFEE7008001200000002013
:1007C40000000020F8070008000000201C000020A2
:1007D400FEE70000F8B500BFF8BC08BC9E467047B1
:0C07E400F8B500BFF8BC08BC9E4670478A
:0407F000FD010008FF
:0407F400D501000823
:040000050800078563
:00000001FF
